:100000000C945D000C9485000C9485000C94850084
:100010000C9485000C9485000C9485000C9485004C
:100020000C9485000C9485000C9485000C9485003C
:100030000C9485000C9485000C9485000C9485002C
:100040000C94A6020C9485000C9416030C94F002F8
:100050000C9485000C9485000C9485000C9485000C
:100060000C9485000C9485000000000024002700FB
:100070002A0000000000250028002B0004040404CE
:100080000404040402020202020203030303030342
:10009000010204081020408001020408102001021F
:1000A00004081020000000080002010000030407FB
:1000B0000000000000000000480311241FBECFEF25
:1000C000D8E0DEBFCDBF11E0A0E0B1E0EAE9F8E0A2
:1000D00002C005900D92AA3AB107D9F722E0AAEA28
:1000E000B1E001C01D92A135B207E1F710E0CDE506
:1000F000D0E004C02197FE010E944004CC35D10716
:10010000C9F70E9479030C944B040C94000090E012
:10011000FC01EC55FF4F2491FC01E057FF4F349157
:10012000FC01E458FF4FE491EE2309F43CC0222384
:1001300039F1233091F038F42130A9F0223001F563
:1001400084B58F7D12C0273091F02830A1F0243083
:10015000B9F4809180008F7D03C0809180008F77FB
:10016000809380000DC084B58F7784BD09C08091D5
:10017000B0008F7703C08091B0008F7D8093B00076
:10018000F0E0EE0FFF1FEE58FF4FA591B4919FB71F
:10019000F894611104C08C913095382302C0EC9121
:1001A0003E2B3C939FBF0895CF93DF9390E0FC01DB
:1001B000E057FF4F2491FC01E458FF4F84918823BE
:1001C00061F190E0880F991FFC01E859FF4FC5913C
:1001D000D491FC01EE58FF4FA591B491611109C073
:1001E0009FB7F8948881209582238883EC912E23F1
:1001F0000BC0623061F49FB7F8948881322F30953C
:1002000083238883EC912E2B2C939FBF06C08FB73E
:10021000F894E8812E2B28838FBFDF91CF9108952A
:100220003FB7F8948091AF019091B001A091B101D6
:10023000B091B20126B5A89B05C02F3F19F00196D9
:10024000A11DB11D3FBFBA2FA92F982F8827820F5C
:10025000911DA11DB11DBC01CD0142E0660F771FAC
:10026000881F991F4A95D1F708958F929F92AF9258
:10027000BF92CF92DF92EF92FF926B017C010E94BE
:1002800010014B015C01C114D104E104F104F1F04F
:100290000E941001DC01CB0188199909AA09BB0948
:1002A000883E9340A105B10570F321E0C21AD10840
:1002B000E108F10888EE880E83E0981EA11CB11CAD
:1002C000C114D104E104F10419F7DDCFFF90EF90E0
:1002D000DF90CF90BF90AF909F908F900895CF9276
:1002E000DF92EF92FF920F931F93CF93DF936C01F6
:1002F0007A018B01C0E0D0E0CE15DF0581F0D80196
:100300006D918D01D601ED91FC910190F081E02D70
:10031000C6010995892B11F02196EECF7E01C70108
:10032000DF91CF911F910F91FF90EF90DF90CF90D1
:100330000895089580E090E00895FC01538D448D68
:10034000252F30E0842F90E0821B930B541710F080
:10035000CF96089501970895FC01918D828D98178D
:1003600061F0828DDF01A80FB11D5D968C91928D99
:100370009F5F9F73928F90E008958FEF9FEF089596
:10038000FC01918D828D981731F0828DE80FF11D5F
:10039000858D90E008958FEF9FEF0895FC01918D7A
:1003A000228D892F90E0805C9F4F821B91098F7373
:1003B0009927089583EB91E00E94CE0121E0892BDB
:1003C00009F420E0822F0895FC01848DDF01A80F3D
:1003D000B11DA35ABF4F2C91848D90E001968F736D
:1003E0009927848FA689B7892C93A089B1898C918C
:1003F000837080648C93938D848D981306C00288DB
:10040000F389E02D80818F7D80830895EF92FF92A4
:100410000F931F93CF93DF93EC0181E0888F9B8D27
:100420008C8D981305C0E889F989808185FD26C0E7
:10043000F62E0B8D10E00F5F1F4F0F731127E02E6C
:100440008C8DE8120CC00FB607FCFACFE889F98949
:10045000808185FFF5CFCE010E94E401F1CF8B8D25
:10046000FE01E80FF11DE35AFF4FF0829FB7F894A9
:100470000B8FEA89FB89808180620AC09FB7F8945C
:10048000EE89FF896083E889F989808183708064BF
:1004900080839FBF81E090E0DF91CF911F910F910A
:1004A000FF90EF900895682F83EB91E00C94060283
:1004B000CF93DF93C82F282F30E084E03595279520
:1004C0008A95E1F7C90134E0880F991F3A95E1F761
:1004D000DFE02D27822B0E945302CF7020E1C29FC4
:1004E000C0011124CD278C2BDF91CF910C945302A6
:1004F000CF93DF93EC01888D8823C9F0EA89FB89CB
:10050000808185FD05C0A889B9898C9186FD0FC0C1
:100510000FB607FCF5CF808185FFF2CFA889B98996
:100520008C9185FFEDCFCE010E94E401E7CFDF91F2
:10053000CF91089580E090E0892B29F00E94DA01A4
:1005400081110C94000008950E9446041F920F929E
:100550000FB60F9211242F933F938F939F93AF93D6
:10056000BF938091AB019091AC01A091AD01B0918E
:10057000AE013091AA0123E0230F2D3720F401961C
:10058000A11DB11D05C026E8230F0296A11DB11DB6
:100590002093AA018093AB019093AC01A093AD018D
:1005A000B093AE018091AF019091B001A091B101E3
:1005B000B091B2010196A11DB11D8093AF0190933E
:1005C000B001A093B101B093B201BF91AF919F91DF
:1005D0008F913F912F910F900FBE0F901F90189504
:1005E0001F920F920FB60F9211242F933F934F93A8
:1005F0005F936F937F938F939F93AF93BF93EF938B
:10060000FF9383EB91E00E94E401FF91EF91BF9192
:10061000AF919F918F917F916F915F914F913F919A
:100620002F910F900FBE0F901F9018951F920F9251
:100630000FB60F9211242F938F939F93EF93FF93F5
:10064000E091C301F091C4018081E091C901F09172
:10065000CA0182FD12C090818091CC018F5F8F739F
:100660002091CD01821751F0E091CC01F0E0ED54E2
:10067000FE4F958F8093CC0101C08081FF91EF9157
:100680009F918F912F910F900FBE0F901F901895F3
:10069000E3EBF1E01382128288EE93E0A0E0B0E099
:1006A00084839583A683B78384E091E091838083DC
:1006B00085EC90E09587848784EC90E09787868727
:1006C00080EC90E0918B808B81EC90E0938B828B1F
:1006D00082EC90E0958B848B86EC90E0978B868BF8
:1006E000118E128E138E148E82E191E0809350024F
:1006F0000895789484B5826084BD84B5816084BD9A
:1007000085B5826085BD85B5816085BD80916E00AF
:10071000816080936E0010928100809181008260E0
:10072000809381008091810081608093810080911D
:1007300080008160809380008091B100846080930C
:10074000B1008091B00081608093B00080917A0008
:10075000846080937A0080917A00826080937A002E
:1007600080917A00816080937A0080917A0080681D
:1007700080937A001092C100E091C301F091C4010E
:1007800082E08083E091BF01F091C0011082E0918E
:10079000C101F091C2018FEC80831092CB01E091F6
:1007A000C701F091C80186E08083E091C501F09116
:1007B000C601808180618083E091C501F091C6010E
:1007C000808188608083E091C501F091C6018081BD
:1007D00080688083E091C501F091C60180818F7DA2
:1007E000808361E089E00E94D40061E088E00E949B
:1007F000D40061E08DE00E94D40062E080E00E94BD
:10080000D400CCE861E089E00E94870061E088E0E4
:100810000E94870082E00E945302809150020E9451
:10082000580283E00E9453029091500248E080E019
:10083000582F5927282F30E035952795822F50FDC6
:100840001CC096954150A1F70E94580261E070E0EB
:1008500080E090E00E94350160E089E00E9487001E
:1008600060E088E00E94870064EF71E080E090E043
:100870000E9435010E949A02C5CF8C2F8227E1CFBA
:10088000EE0FFF1F0590F491E02D099481E090E0B8
:0A089000F8940C944B04F894FFCF89
:10089A000000000006026F019D017802CE01AC0142
:1008AA00C0013C4C454C6F6E674D6573736167655B
:1008BA004C6F6E674D6573736167654C6F6E674DFC
:1008CA006573736167654C6F6E674D6573736167B6
:1008DA00654C6F6E674D6573736167654C6F6E67C4
:1008EA004D6573736167654C6F6E674D65737361B0
:1008FA0067654C6F6E674D6573736167654C6F6EA4
:10090A00674D6573736167654C6F6E674D65737389
:10091A006167654C6F6E674D6573736167654C6F90
:10092A006E674D6573736167654C6F6E674D65736E
:0A093A0073616765444F4E3E0000F4
:00000001FF
